:1000000012C021C020C064C01EC01DC01CC01BC0C7
:100010001AC019C018C017C016C015C014C013C02C
:1000200012C011C010C011241FBECFE5D4E0DEBF46
:10003000CDBF10E0A0E6B0E001C01D92A136B1072F
:10004000E1F722D06BC3DCCF80E060E052D00895AE
:1000500080E260E155D080E86FEF4BD0089580E1F9
:1000600060E24ED08FEF60E844D0089580E160E117
:1000700047D08FEF6FEF3DD0089580E260E240D02F
:100080008FEF6FEF36D008951F93CF93DF9370D02B
:1000900014D1182F882321F4F0DF81E03AD0F8CF73
:1000A00080E060E026D082E034D0C12FD0E013FDA4
:1000B000CFDFC770D070CD2B09F0D1DFC0E0D0E02A
:1000C0008FEF3AD1219681E0C831D807C9F7E0CF48
:1000D0001F920F920FB60F9211248F9380916000A0
:1000E0008F5F809360008F910F900FBE0F901F90D5
:1000F000189590E09BBD8ABD70E079BD68BD0895FC
:1001000092B39F7C982B92BB88B38F7C862B88BB45
:100110000895882311F4C09803C0813019F4C09A5F
:1001200092980895833019F4C09A929A0895823073
:1001300011F4C098929A089592B38295880F880F0F
:10014000807C9F7B982B92BB0895982F882311F475
:10015000662349F0979884B3836084BB85B383603A
:1001600085BB992309F4A998662309F4A8980895F2
:1001700089E185BD8EE683BD89B7806889BF1BB8DC
:100180001AB896E890BD8FEC89B98FE387BB84EFEE
:1001900081BB81EA8FBD82E08EBD96B99798969813
:1001A00081E061E0D2DF80E060E0CFDF81E0B1DFBD
:1001B00082B38F7C806282BB88B38F7C806288BB75
:1001C0001BBC1ABC19BC18BC78940895FC0183E4CC
:1001D00087B9369A349BFECF349A34B125B1922F29
:1001E00080E0830F911D9183808382E487B9369AE2
:1001F000349BFECF349A34B125B1922F80E0830F27
:10020000911D938382830895FC0184B38C7F84BB0A
:10021000979A81E487B9369A349BFECF349A34B1E9
:1002200025B1922F80E0830F911D9183808380E41C
:1002300087B9369A349BFECF349A34B125B1922FC8
:1002400080E0830F911D93838283089528E02AB96B
:10025000FC0105C05D9BFECF81918CB96150662386
:10026000C9F75E9BFECF0895FC0180E18AB9411574
:10027000510511F490E01EC0DF0170E005C05F9BE6
:1002800007C08CB18D937F5F7617B0F420E030E02B
:100290002F5F3F4FC90101978417950780F34217DD
:1002A000530750F484E5808308955F9BFECF8CB1A3
:1002B00081939F5F9617C8F308958B9A939A84E46D
:1002C00087B910926000809160008A30E0F3369A1E
:1002D000349BFECF349A34B125B19398722F60E0ED
:1002E000630F711D80E090E028D19B01AC0160E0BC
:1002F00070E080E894E48DD020E030E040E85FE3F7
:1003000023D020E030E04CE752E4A5D120E030E0FB
:1003100040E05FE31AD0E5D0DC01CB01089593986B
:100320008B9885B7837F85BF8BB780688BBF089517
:100330008BB78F778BBF0895982F109260008091B4
:1003400060008917E0F308955058BB27AA270ED004
:1003500048C139D130F03ED120F031F49F3F11F443
:100360001EF42EC10EF4E095E7FB24C1E92F4AD11B
:1003700080F3BA17620773078407950718F071F4C2
:100380009EF562C10EF4E0950B2EBA2FA02D0B0145
:10039000B90190010C01CA01A0011124FF27591BCA
:1003A00099F0593F50F4503E68F11A16F040A22FD0
:1003B000232F342F4427585FF3CF46953795279541
:1003C000A795F0405395C9F77EF41F16BA0B620B40
:1003D000730B840BBAF09150A1F0FF0FBB1F661F87
:1003E000771F881FC2F70EC0BA0F621F731F841FCA
:1003F00048F4879577956795B795F7959E3F08F0F0
:10040000B3CF9395880F08F09927EE0F97958795AE
:1004100008950CD0E6C0DED040F0D5D030F021F405
:100420005F3F19F0C7C0511110C1CAC0EBD098F39B
:100430009923C9F35523B1F3951B550BBB27AA2765
:1004400062177307840738F09F5F5F4F220F331FD7
:10045000441FAA1FA9F333D00E2E3AF0E0E830D0A3
:1004600091505040E695001CCAF729D0FE2F27D0A6
:10047000660F771F881FBB1F261737074807AB0774
:10048000B0E809F0BB0B802DBF01FF2793585F4FE9
:100490002AF09E3F510568F08DC0D7C05F3FECF356
:1004A000983EDCF3869577956795B795F7959F5FAE
:1004B000C9F7880F911D9695879597F90895E1E002
:1004C000660F771F881FBB1F621773078407BA0761
:1004D00020F0621B730B840BBA0BEE1F88F7E095BC
:1004E000089598D088F09F5790F0B92F9927B75169
:1004F000A0F0D1F0660F771F881F991F1AF0BA95E8
:10050000C9F712C0B13081F09FD0B1E008959CC00E
:10051000672F782F8827B85F39F0B93FCCF38695DD
:1005200077956795B395D9F73EF49095809570953A
:1005300061957F4F8F4F9F4F0895E89409C097FBB7
:100540003EF490958095709561957F4F8F4F9F4FAA
:100550009923A9F0F92F96E9BB279395F6958795EE
:1005600077956795B795F111F8CFFAF4BB0F11F4B1
:1005700060FF1BC06F5F7F4F8F4F9F4F16C0882358
:1005800011F096E911C0772321F09EE8872F762F8E
:1005900005C0662371F096E8862F70E060E02AF0CF
:1005A0009A95660F771F881FDAF7880F96958795BB
:1005B00097F9089597F99F6780E870E060E00895E3
:1005C0009FEF80EC089500240A941616170618066B
:1005D0000906089500240A94121613061406050647
:1005E0000895092E0394000C11F4882352F0BB0FD8
:1005F00040F4BF2B11F460FF04C06F5F7F4F8F4F3B
:100600009F4F089557FD9058440F551F59F05F3F75
:1006100071F04795880F97FB991F61F09F3F79F024
:1006200087950895121613061406551FF2CF4695A6
:10063000F1DF08C0161617061806991FF1CF869528
:100640007105610508940895E894BB27662777270C
:10065000CB0197F908950BD0C4CFB5DF28F0BADFEE
:1006600018F0952309F0A6CFABCF1124EECFCADF47
:10067000A0F3959FD1F3950F50E0551F629FF001B5
:10068000729FBB27F00DB11D639FAA27F00DB11D0E
:10069000AA1F649F6627B00DA11D661F829F222797
:1006A000B00DA11D621F739FB00DA11D621F839F1E
:1006B000A00D611D221F749F3327A00D611D231FF4
:1006C000849F600D211D822F762F6A2F11249F5742
:1006D00050408AF0E1F088234AF0EE0FFF1FBB1F65
:1006E000661F771F881F91505040A9F79E3F510504
:1006F00070F060CFAACF5F3FECF3983EDCF38695B5
:1007000077956795B795F795E7959F5FC1F7FE2BAE
:10071000880F911D9695879597F90895F894FFCFC6
:00000001FF
